:100000000C9434000C943E000C943E000C943E0082
:100010000C943E000C943E000C943E000C943E0068
:100020000C943E000C943E000C943E000C943E0058
:100030000C943E000C943E000C943E000C943E0048
:100040000C943E000C943E000C943E000C943E0038
:100050000C943E000C943E000C943E000C943E0028
:100060000C943E000C943E0011241FBECFEFD8E04C
:10007000DEBFCDBF0E9440000C947A000C940000BB
:1000800017B881E080937E00ECE7F0E01082808179
:100090008064808380818062808387E880937A0097
:1000A00010927B00E0E8F0E08081826A8083E1E8E2
:1000B000F0E080818B61808387E893E190938700F3
:1000C00080938600219AEAE7F0E0A8E8B0E024EF08
:1000D00031E0C9E7D0E0808180648083808184FF43
:1000E000FDCF11963C932E93888190E011969C93BE
:0800F0008E93F1CFF894FFCFCD
:00000001FF
