:100000000C944B000C9468000C9468000C946800ED
:100010000C9468000C9468000C9468000C946800C0
:100020000C9468000C9468000C9468000C946800B0
:100030000C9468000C9470010C9468000C94680097
:100040000C9468000C9468000C9468000C94680090
:100050000C9468000C9468000C9468000C94680080
:100060000C9468000C946800084AD73B3BCE016EA4
:1000700084BCBFFDC12F3D6C74319ABD56833DDAFF
:100080003D00C77F11BED9E4BB4C3E916BAAAABE0E
:10009000000000803F0011241FBECFEFD8E0DEBF7C
:1000A000CDBF11E0A0E0B1E0ECE6F0E102C00590C8
:1000B0000D92A030B107D9F721E0A0E0B1E001C076
:1000C0001D92A430B207E1F70E94F9010C943408A4
:1000D0000C9400001092B9008CE08093B800089551
:1000E00094EA9093BC00ECEBF0E090819923ECF75C
:1000F0009091B900987F983011F09031A1F48093DD
:10010000BB0084E88093BC00ECEBF0E080818823A6
:10011000ECF79091B900987F983139F081E09034F4
:1001200029F480E0089581E0089580E00895CF9358
:10013000DF93ECEBF0E024EAA9EBB0E0CBEBD0E00E
:1001400034E844E9208390819923ECF79C91987FCF
:10015000983011F09031B1F78883308390819923E2
:10016000ECF79C91987F903211F0983529F44083F8
:10017000908194FDFDCFE6CFDF91CF9108950E944D
:100180007000089584E98093BC00ECEBF0E080817E
:1001900084FDFDCF08958093BB0084E88093BC006C
:1001A000ECEBF0E080818823ECF79091B900987F28
:1001B00081E0983209F480E0089584E88093BC00DF
:1001C000ECEBF0E080818823ECF78091BB00089590
:1001D0000F931F93CF93DF93C82FD62F8A010E94CE
:1001E00097008D2F0E94CB0081E08C0F0E94BF00F2
:1001F0000E94DD00F80180830E94C200DF91CF9150
:100200001F910F910895CF93DF93D62FC42F0E9493
:1002100097008D2F0E94CB008C2F0E94CB000E9454
:10022000C200DF91CF91089510928000EFE6F0E0D8
:10023000808181608083E1E8F0E08081826080835A
:1002400080818A7F808308958F929F92AF92BF9220
:10025000CF92DF92EF92FF92CF93DF93EC01F8946D
:100260006091840080918500C0900001D0900101D0
:10027000E0900201F090030170E0782B80E090E0C4
:100280000E94AB062DEB37E346E055E30E9468077A
:100290004B015C012DEB37E346E05DE3C701B6019E
:1002A0000E9468079B01AC01C501B4010E942C05A6
:1002B000688379838A839B831092000110920101E5
:1002C00010920201109203017894DF91CF91FF9078
:1002D000EF90DF90CF90BF90AF909F908F90089558
:1002E0001F920F920FB60F9211242F933F934F93AB
:1002F0005F936F937F938F939F93AF93BF93EF938E
:10030000FF93609100017091010180910201909131
:10031000030120E030E040E85FE30E942C05609399
:100320000001709301018093020190930301FF91FA
:10033000EF91BF91AF919F918F917F916F915F915D
:100340004F913F912F910F900FBE0F901F901895D6
:100350001092C50083E38093C400E1ECF0E080815B
:1003600088618083808180688083E2ECF0E0808116
:10037000866080830895CF93DF9300D000D0CDB7FF
:10038000DEB769837A838B839C83E6ECF0E060833D
:100390002FEF83EC99E0215080409040E1F700C0BE
:1003A00000008A8180832FEF83EC99E02150804008
:1003B0009040E1F700C000008B8180832FEF83EC39
:1003C00099E0215080409040E1F700C000008C810E
:1003D00080832FEF83EC99E0215080409040E1F73B
:1003E00000C000000F900F900F900F90DF91CF9101
:1003F0000895CF93DF93CDB7DEB7AC970FB6F894DF
:10040000DEBF0FBECDBF78940E94A8010E946A0093
:10041000259A82ED0E9470002D9A2FEF81EE94E0D4
:10042000215080409040E1F700C000002D980E94CC
:1004300034040E94140114E1C12CD12C7601460130
:100440005701CE0107960E9489046F817885072E97
:10045000000C880B990B0E94AD069B01AC01C501F5
:10046000B4010E942C054B015C0169857A85072E39
:10047000000C880B990B0E94AD069B01AC01C701D3
:10048000B6010E942C056B017C011150D1F620E0D1
:1004900030E040EA51E4C501B4010E940A062EE2B0
:1004A0003AEF4EE85CE30E94680720E030E04AE75C
:1004B00054E40E940A0620E030E040E058E30E9445
:1004C00068076DA37EA38FA398A720E030E040EAE1
:1004D00051E4C701B6010E940A062EE23AEF4EE847
:1004E0005CE30E94680720E030E04AE754E40E94A1
:1004F0000A0620E030E040E058E30E94680769A760
:100500007AA78BA79CA7CE0101960E94F504412CE7
:10051000512C3201A3019201C301B2010E94AB052B
:100520006D8B7E8B8F8B988FA3019201C301B201DB
:100530000E9468076B017C01A3019201C301B20113
:100540000E9468079B01AC01C701B6010E942C05FF
:100550000E94DB079B01AC0160E070E080E090E866
:100560000E94AB05698F7A8F8B8F9C8F498A5A8A3C
:100570006B8A7C8A0F2EF6EC2F2E312CF02D1AE090
:10058000CE010D960E942401CE0101960E94F50431
:10059000CE0107960E9489046B817C81072E000C96
:1005A000880B990B0E94AD062DEC3CEC4CE151E41C
:1005B0000E9468079B01AC010E942C0520E030E0FE
:1005C00040E058E30E9468076B017C016D817E81E9
:1005D000072E000C880B990B0E94AD062DEC3CEC0D
:1005E0004CE151E40E9468079B01AC010E942C057C
:1005F00020E030E040E058E30E9468074B015C01D6
:100600004D845E846F8478882FE632E143E85AE3B4
:1006100069897A898B899C890E942C05698B7A8BE0
:100620008B8B9C8BA5019401C701B6010E94AB0581
:100630006D8F7E8F8F8F98A3A7019601C701B6019A
:100640000E94680769A37AA38BA39CA3A7019601C4
:10065000C701B6010E9468076B017C01A5019401E6
:10066000C501B4010E9468079B01AC01C701B60136
:100670000E942C050E94DB076B017C0169817A8155
:10068000072E000C880B990B0E94AD062DEC3CEC5C
:100690004CE151E40E9468079B01AC010E942C05CB
:1006A00020E030E040E058E30E9468079058A7013E
:1006B00096010E94AB054B015C012FE832EC45EF3F
:1006C0005CE369897A898B899C890E942C059B014E
:1006D000AC0169897A898B899C890E940A066B0121
:1006E0007C016F817885072E000C880B990B0E9486
:1006F000AD062EE23AEF4EE85CE30E94680720E088
:1007000030E04AE754E40E940A0620E030E040E08E
:1007100058E30E9468072DA13EA14FA158A50E9451
:100720002B05A30192010E9468072D893E894F89FC
:10073000588D0E942C059B01AC016D8D7E8D8F8D97
:1007400098A10E942B05A70196010E9468079B01B2
:10075000AC016D897E898F89988D0E942C056D8BE7
:100760007E8B8F8B988F69857A85072E000C880B7E
:10077000990B0E94AD062EE23AEF4EE85CE30E9430
:10078000680720E030E04AE754E40E940A0620E0CF
:1007900030E040E058E30E94680729A53AA54BA540
:1007A0005CA50E942B05A30192010E946807298D78
:1007B0003A8D4B8D5C8D0E942C059B01AC01C501CF
:1007C000B4010E942B05A70196010E9468079B01B6
:1007D000AC01698D7A8D8B8D9C8D0E942C05698F63
:1007E0007A8F8B8F9C8FA701960160E070E080E884
:1007F0009FE30E942B0529893A894B895C890E94D5
:100800006807698B7A8B8B8B9C8BF1011083FFEFD0
:1008100023EC89E0F15020408040E1F700C0000067
:10082000EFE1FEE43197F1F700C000006D897E89A9
:100830008F89988D0E947C06F1016083FFEF23EC85
:1008400089E0F15020408040E1F700C00000698D50
:100850007A8D8B8D9C8D0E94BB016D857E858F85E9
:1008600098890E94BB018CCE40E06BE682ED0E942D
:10087000030141E06AE182ED0E94030140E16BE186
:1008800082ED0E94030140E06CE182ED0E940301D1
:1008900040E068E382ED0E94030140E068E682EDFB
:1008A0000E9403010895CF93DF93EC01AC0163E450
:1008B00082ED0E94E800AE014F5F5F4F64E482ED7D
:1008C0000E94E800DF91CF910895CF93DF93EC0170
:1008D000AC0165E482ED0E94E800AE014F5F5F4F1E
:1008E00066E482ED0E94E800DF91CF910895CF93F6
:1008F000DF93EC01AC0167E482ED0E94E800AE01F9
:100900004F5F5F4F68E482ED0E94E800DF91CF9176
:1009100008950F931F93CF93DF9300D0CDB7DEB729
:100920008C01CE0101960E945304898190E0982F9A
:1009300088272A81822BF80191838083CE0101963A
:100940000E946504898190E0982F88272A81822B54
:10095000F80193838283CE0101960E9477048981F6
:1009600090E0982F88272A81822BF8019583848331
:100970000F900F90DF91CF911F910F910895CF931A
:10098000DF93EC01AC016BE382ED0E94E800AE0165
:100990004F5F5F4F6CE382ED0E94E800DF91CF91E3
:1009A0000895CF93DF93EC01AC016DE382ED0E94DB
:1009B000E800AE014F5F5F4F6EE382ED0E94E800FA
:1009C000DF91CF910895CF93DF93EC01AC016FE3FA
:1009D00082ED0E94E800AE014F5F5F4F60E482ED60
:1009E0000E94E800DF91CF9108950F931F93CF935A
:1009F000DF9300D0CDB7DEB78C01CE0101960E9407
:100A0000BF04898190E0982F88272A81822BF801E2
:100A100091838083CE0101960E94D104898190E068
:100A2000982F88272A81822BF80193838283CE0115
:100A300001960E94E304898190E0982F88272A81FB
:100A4000822BF801958384830F900F90DF91CF91D3
:100A50001F910F9108955058BB27AA270E94430564
:100A60000C9426070E94180738F00E941F0720F0F8
:100A700039F49F3F19F426F40C94EE060EF4E09539
:100A8000E7FB0C94E806E92F0E94370758F3BA17E2
:100A9000620773078407950720F079F4A6F50C9494
:100AA00059070EF4E0950B2EBA2FA02D0B01B901BA
:100AB00090010C01CA01A0011124FF27591B99F0D4
:100AC000593F50F4503E68F11A16F040A22F232FE0
:100AD000342F4427585FF3CF469537952795A79530
:100AE000F0405395C9F77EF41F16BA0B620B730BD7
:100AF000840BBAF09150A1F0FF0FBB1F661F771F48
:100B0000881FC2F70EC0BA0F621F731F841F48F4FC
:100B1000879577956795B795F7959E3F08F0B0CF85
:100B20009395880F08F09927EE0F9795879508956C
:100B30000E94180760F080E891E009F49EEF0E949F
:100B40001F0728F040E851E071F45EEF0CC00C94F0
:100B5000EE060C945907E92FE0780E94370740F31E
:100B6000092E052AB1F3261737074807590738F029
:100B70000E2E07F8E02569F0E025E0640AC0EF6377
:100B800007F8009407FADB01B9019D01DC01CA01F5
:100B9000AD01EF930E9421060E9426070E94DB050B
:100BA0005F91552339F02BED3FE049E450FD49ECCE
:100BB0000C942C050895DF93DD27B92FBF7740E80B
:100BC0005FE31616170648075B0718F4D92F0E9433
:100BD00060079F938F937F936F930E941B08E8E6B3
:100BE000F0E00E94F1060E9426072F913F914F915D
:100BF0005F910E947B07DD2351F09058A2EA2AED15
:100C00003FE049EC5FE3D0785D270E944305DF9128
:100C10000C9426070E941E060C9426070E941F07AC
:100C200058F00E94180740F029F45F3F29F00C9417
:100C3000E80651110C945A070C94EE060E943707EF
:100C400068F39923B1F3552391F3951B550BBB27FB
:100C5000AA2762177307840738F09F5F5F4F220F40
:100C6000331F441FAA1FA9F335D00E2E3AF0E0E837
:100C700032D091505040E695001CCAF72BD0FE2F81
:100C800029D0660F771F881FBB1F26173707480715
:100C9000AB07B0E809F0BB0B802DBF01FF279358CD
:100CA0005F4F3AF09E3F510578F00C94E8060C94A3
:100CB0005A075F3FE4F3983ED4F38695779567959E
:100CC000B795F7959F5FC9F7880F911D9695879502
:100CD00097F90895E1E0660F771F881FBB1F621721
:100CE00073078407BA0720F0621B730B840BBA0BDF
:100CF000EE1F88F7E09508950E943F0788F09F5700
:100D000098F0B92F9927B751B0F0E1F0660F771F2F
:100D1000881F991F1AF0BA95C9F714C0B13091F025
:100D20000E945907B1E008950C945907672F782F56
:100D30008827B85F39F0B93FCCF3869577956795EA
:100D4000B395D9F73EF490958095709561957F4F56
:100D50008F4F9F4F0895E89409C097FB3EF49095FC
:100D60008095709561957F4F8F4F9F4F9923A9F084
:100D7000F92F96E9BB279395F69587957795679513
:100D8000B795F111F8CFFAF4BB0F11F460FF1BC057
:100D90006F5F7F4F8F4F9F4F16C0882311F096E9EA
:100DA00011C0772321F09EE8872F762F05C0662398
:100DB00071F096E8862F70E060E02AF09A95660F51
:100DC000771F881FDAF7880F9695879597F908950A
:100DD00097F99F6780E870E060E008959FEF80ECEE
:100DE0000895DF93CF931F930F93FF92EF92DF92BB
:100DF0007B018C01689406C0DA2EEF010E947B070C
:100E0000FE01E894A5912591359145915591A6F360
:100E1000EF010E944305FE019701A801DA9469F7EA
:100E2000DF90EF90FF900F911F91CF91DF91089588
:100E300000240A94161617061806090608950024B9
:100E40000A9412161306140605060895092E039433
:100E5000000C11F4882352F0BB0F40F4BF2B11F4A7
:100E600060FF04C06F5F7F4F8F4F9F4F089557FD06
:100E70009058440F551F59F05F3F71F04795880F08
:100E800097FB991F61F09F3F79F08795089512169F
:100E900013061406551FF2CF4695F1DF08C016164B
:100EA00017061806991FF1CF8695710561050894FC
:100EB0000895E894BB2766277727CB0197F9089513
:100EC0009B01AC0160E070E080E89FE30C940A06AF
:100ED0000E947B070C9426070E94180738F00E9496
:100EE0001F0720F0952311F00C94E8060C94EE06F1
:100EF00011240C945A070E94370770F3959FC1F391
:100F0000950F50E0551F629FF001729FBB27F00DB7
:100F1000B11D639FAA27F00DB11DAA1F649F66270C
:100F2000B00DA11D661F829F2227B00DA11D621F5B
:100F3000739FB00DA11D621F839FA00D611D221F15
:100F4000749F3327A00D611D231F849F600D211DF9
:100F5000822F762F6A2F11249F5750409AF0F1F07C
:100F600088234AF0EE0FFF1FBB1F661F771F881FE5
:100F700091505040A9F79E3F510580F00C94E8062F
:100F80000C945A075F3FE4F3983ED4F38695779527
:100F90006795B795F795E7959F5FC1F7FE2B880F8B
:100FA000911D9695879597F9089519F416F40C9468
:100FB000EE060C941F080E943F07B8F39923C9F36B
:100FC000B6F39F57550B87FF0E942D080024A0E61B
:100FD00040EA900180585695979528F4805C660FFA
:100FE000771F881F20F026173707480730F4621B49
:100FF000730B840B202931294A2BA695179407944B
:10100000202531254A2758F7660F771F881F20F0C3
:1010100026173707480730F4620B730B840B200D3B
:10102000311D411DA09581F7B901842F9158880F7A
:101030009695879508959B01AC010C9468079F3F96
:1010400031F0915020F4879577956795B795880F83
:10105000911D9695879597F9089591505040660F88
:0C106000771F881FD2F70895F894FFCF87
:00000001FF
