:100000000C9434000C944A000C943E000C943E0076
:100010000C943E000C943E000C943E000C943E0068
:100020000C943E000C943E000C943E000C943E0058
:100030000C943E000C943E000C943E000C943E0048
:100040000C943E000C943E000C943E000C943E0038
:100050000C943E000C943E000C943E000C943E0028
:100060000C943E000C943E0011241FBECFEFD8E04C
:10007000DEBFCDBF0E9440000C946D000C940000C8
:1000800084E08AB984B981E08DBB83E08093690004
:100090007894FFCF1F920F920FB60F9211242F93D7
:1000A0003F938F939F9395B184E0982795B92FEF55
:1000B00033ED90E3215030409040E1F700C0000064
:1000C00095B1892785B9E09A9F918F913F912F91A2
:0E00D0000F900FBE0F901F901895F894FFCF61
:00000001FF
