S00D00004441325F432E73726563BE
S11300000C9434000C943E000C943E000C943E007E
S11300100C943E000C943E000C943E000C943E0064
S11300200C943E000C943E000C943E000C943E0054
S11300300C943E000C943E000C943E000C943E0044
S11300400C943E000C943E000C943E000C943E0034
S11300500C943E000C943E000C943E000C943E0024
S11300600C943E000C943E0011241FBECFEFD8E048
S1130070DEBFCDBF0E9440000C945F000C940000D2
S1130080229A52985A9A94E0489BFECF2FEF33EC71
S113009089E0215030408040E1F700C0000085B184
S11300A0892785B92FEF33ED80E32150304080401C
S11300B0E1F700C0000085B1892785B9E5CFF89440
S10500C0FFCF6C
S9030000FC
