:100000000C9434000C9446000C9446000C9446006A
:100010000C9446000C9446000C9446000C94460048
:100020000C9446000C9446000C9446000C94460038
:100030000C9446000C9446000C9446000C94460028
:100040000C945B000C9446000C9446000C94460003
:100050000C9446000C9446000C9446000C94460008
:100060000C9446000C94460011241FBECFEFD8E03C
:10007000DEBFCDBF21E0A0E0B1E001C01D92A23003
:10008000B207E1F70E9448000C9484000C94000031
:10009000109201011092000184E084B915B816BCD9
:1000A00014BC85B5816085BDEEE6F0E0808181609D
:1000B00080837894FFCF1F920F920FB60F92112476
:1000C0002F938F939F93809100019091010188302D
:1000D0009D4349F495B184E0892785B910920101C7
:1000E0001092000109C080910001909101010196D8
:1000F00090930101809300019F918F912F910F9018
:0C0100000FBE0F901F901895F894FFCFD1
:00000001FF
