:100000000C9434000C943E000C943E000C943E0082
:100010000C943E000C943E000C943E000C943E0068
:100020000C943E000C943E000C943E000C943E0058
:100030000C943E000C943E000C943E000C943E0048
:100040000C943E000C943E000C943E000C943E0038
:100050000C943E000C943E000C943E000C943E0028
:100060000C943E000C943E0011241FBECFEFD8E04C
:10007000DEBFCDBF0E9440000C9459010C940000DB
:10008000CF93DF93CDB7DEB72A970FB6F894DEBFD4
:100090000FBECDBF1A8219821C821B821E821D8256
:1000A00018861F821A86198684E290E09A838983D3
:1000B00089819A818F3F910511F008F046C04981EE
:1000C0005A819A01ADECBCEC0E944A019695879545
:1000D000969587959C01220F331F220F331F820FA5
:1000E000931F4817590741F429813A818F819885D8
:1000F000820F931F98878F8349815A819A01ADECB3
:10010000BCEC0E944A0196958795969587959C012F
:10011000220F331F220F331F820F931F48175907D7
:1001200041F029813A8189859A85820F931F9A87A8
:10013000898789819A8101969A83898389819A81A5
:100140008F3F910509F008F4BACF1C821B828B8186
:100150009C81029708F044C04B815C819A01ADEC10
:10016000BCEC0E944A0196958795969587959C01CF
:10017000220F331F220F331F820F931F4817590777
:1001800041F42B813C818F819885820F931F988742
:100190008F834B815C819A01ADECBCEC0E944A01DB
:1001A00096958795969587959C01220F331F220F70
:1001B000331F820F931F4817590741F02B813C8151
:1001C00089859A85820F931F9A8789878B819C8165
:1001D00001969C838B838B819C81029708F4BCCF12
:1001E00083E090E09C838B838B819C81813591059A
:1001F00008F045C04B815C819A01ADECBCEC0E94DB
:100200004A0196958795969587959C01220F331FF5
:10021000220F331F820F931F4817590741F42B8178
:100220003C818F819885820F931F98878F834B81A4
:100230005C819A01ADECBCEC0E944A0196958795D1
:10024000969587959C01220F331F220F331F820F33
:10025000931F4817590741F02B813C8189859A8566
:10026000820F931F9A8789878B819C8101969C833B
:100270008B838B819C818135910508F4BBCF80E015
:1002800090E02A960FB6F894DEBF0FBECDBFDF9187
:10029000CF910895A29FB001B39FC001A39F700D9D
:1002A000811D1124911DB29F700D811D1124911D7E
:0602B0000895F894FFCF51
:00000001FF
