:100000000C9434000C943E000C943E000C943E0082
:100010000C943E000C943E000C943E000C943E0068
:100020000C943E000C943E000C943E000C943E0058
:100030000C943E000C943E000C943E000C943E0048
:100040000C943E000C943E000C943E000C943E0038
:100050000C943E000C943E000C943E000C943E0028
:100060000C943E000C943E0011241FBECFEFD8E04C
:10007000DEBFCDBF0E9440000C9453000C940000E2
:1000800084E084B915B814BC81E085BD16BC24E0B9
:1000900088E09DE3A89BFECFA89A0197D9F785B188
:0A00A000822785B9F5CFF894FFCF51
:00000001FF
